:10000000CCC0EAC610C7EEC0EDC0ECC0EBC0EAC081
:10001000E9C0E8C0E7C0E6C0E5C0E4C0E3C0E2C0B4
:1000200034C7E0C0DFC0DEC0DDC0DCC0DBC0DAC08A
:10003000D9C0D8C0005EBCE2613FDD83C29C7E2097
:10004000A3FD1F419DC3217FFCA2401E5F01E3BDB4
:100050003E6082DC237D9FC1421CFEA0E1BF5D03A8
:1000600080DE3C62BEE0025CDF81633D7C22C09E9C
:100070001D43A1FF4618FAA427799BC584DA386688
:10008000E5BB5907DB856739BAE406581947A5FB74
:100090007826C49A653BD987045AB8E6A7F91B4568
:1000A000C6987A24F8A6441A99C7257B3A6486D85C
:1000B0005B05E7B98CD2306EEDB3510F4E10F2AC48
:1000C0002F7193CD114FADF3702ECC92D38D6F3134
:1000D000B2EC0E50AFF1134DCE90722C6D33D18F28
:1000E0000C52B0EE326C8ED0530DEFB1F0AE4C121C
:1000F00091CF2D73CA947628ABF517490856B4EA08
:100100006937D58B5709EBB536688AD495CB2977F3
:10011000F4AA4816E9B7550B88D6346A2B7597C9E7
:100120004A14F6A8742AC896154BA9F7B6E80A54DB
:10013000D7896B35000000090003020000040508A0
:100140000000000000000000000000010204081090
:100150002040800102040810200102040810204001
:1001600080400404040404040404020202020202A3
:10017000030303030303020203000000002300261D
:1001800000290000000000250028002B00000000CE
:1001900000240027002A0000F20411241FBECFEF24
:1001A000D4E0DEBFCDBF11E0A0E0B1E0E8E7F4E1CC
:1001B00002C005900D92A830B107D9F721E0A8E060
:1001C000B1E001C01D92AE32B207E1F710E0CDEC14
:1001D000D0E003C02197FE0125D9CC3CD107D1F74F
:1001E0004AD648C90DCF08952FC936C961E083E0CA
:1001F00095D781E090E0FAD660E083E08FC7FF9268
:100200000F931F93CF93DF93CDB7DEB72C970FB625
:10021000F894DEBF0FBECDBF10E080E9F82E01E0FC
:100220008EE091E0E3D3882351F16CE171E08EE040
:1002300091E0CED440E06EEB8EE091E069D449E0ED
:1002400050E0BE016F5F7F4F8EE091E0A8D468E080
:10025000CE01019694D59985891314C089819A811C
:100260002A81AC0141575D4F4F3E574058F4287FDB
:1002700011F0283F39F4F82E092F13E003C088EE5F
:1002800093E0B4D61F5F133058F2133059F486E070
:1002900090E0AADF8093080161E0680F86E090E0BB
:1002A000A4DFFFCF8F2D902F2C960FB6F894DEBFD2
:1002B0000FBECDBFDF91CF911F910F91FF90089599
:1002C000CF93DF93D82FC62F8EE091E08FD3882372
:1002D000D9F06CE171E08EE091E07AD440E06EE418
:1002E0008EE091E015D440E06D2F8EE091E010D4C7
:1002F00040E06C2F8EE091E00BD440E060E68EE0B1
:1003000091E0DF91CF9104C487E090E06DDF8093AE
:10031000080161E0680F87E090E067DFFFCF8EE0C3
:1003200091E064D3882351F06CE171E08EE091E0BC
:100330004FD440E064E48EE091E0EAC388E090E0CE
:1003400053DF8093080161E0680F88E090E04DDFA3
:10035000FFCF61E083E0A6D660E083E0DFD662E015
:1003600082E0A0D661E080E19DD660E080E1D6D653
:1003700062E080E097D661E083E194D661E083E1BA
:10038000CDD684E690E032D660E083E1C7D684EF34
:1003900091E02CD661E085E085D661E085E0BED6AF
:1003A00084E690E023D668E28EE091E05CD46CE1D4
:1003B00071E08EE091E065D481110BC084E090E0A3
:1003C00013DF8093080161E0680F84E090E00DDFA7
:1003D000FFCFA5DF60E080E073DF60E085E09ED6C0
:1003E00084E690E003D690E080E0FEDE9FEF980F79
:1003F0009E3FC8F48058990B90930D0180930C0197
:1004000081E090E0F1DE9FEF980F9E3F78F48058F6
:10041000990B90930B0180930A0142E050E063EF47
:1004200070E080E0B9C490E080E0E6CF90E080E04A
:10043000F0CF2F923F924F925F926F927F928F9266
:100440009F92AF92BF92CF92DF92EF92FF920F9363
:100450001F93CF93DF93CDB7DEB7CF54D1090FB63B
:10046000F894DEBF0FBECDBF80910001C12CD12C0E
:100470007601882319F053D56B017C0161E080E19E
:100480004DD688EE93E0B2D59E012F5F3F4F190104
:100490008E010F5C1F4F2E963FAF2EAF2E9719AED9
:1004A00020E43DE043E050E060E080E064D62B01D2
:1004B0003C01812C912C540169AB5AAA8BAB7CAACC
:1004C0008DAA9EAAAFAAB8AE2E96AEADBFAD2E979E
:1004D0006C9311965C92119712968C9312971396C7
:1004E0007C92139714961C92149715961C9215974C
:1004F00016961C92169717961C92179718962E967A
:10050000BFAFAEAF2E979B01AC0160E070E080E022
:1005100090E0A0E07BD711F5B9ADBF5FB9AFB430C3
:10052000E9F488EE93E062D585E090E05DDE8093AB
:10053000080161E0680F85E090E057DE60E080E14F
:10054000EDD561E085E0EAD588EE93E04FD560E037
:1005500080E0B6DE60E085E0E1D5FFCF2E964EACC0
:100560005FAC2E970415150509F09ACF60E080E185
:10057000D5D580910001882319F1D1D4C61AD70AA4
:10058000E80AF90AC701B601605E7C4F8F4F9F4FA2
:100590000FE1C00E03E0D01EE11CF11C20E2C216E8
:1005A00023E0D206E104F10418F060E070E0CB0132
:1005B000E7D425DE9093020180930101109200019F
:1005C0008091010190910201803C3FEF930714F468
:1005D00080EC9FEF805B9F4F880F991F880F991FBA
:1005E00029968FAF29972A969FAF2A97992E990C13
:1005F000990880910C0190910D018C509E4F880FAD
:10060000991F2B968FAF2B972C969FAF2C97892EE7
:10061000880C8808512C21961CAE1DAE1EAE1FAE54
:1006200021978FEF9FEFA0E0B0E089AF9AAFABAF1B
:10063000BCAF27961CAE1DAE1EAE1FAE2797D101D4
:100640004C9011966C90119712967C90129713967D
:10065000BC912296BFAF2297F101F4812396FFAFA0
:100660002397F101B581F6812F96FFAF2F97F10106
:10067000F7816096FFAF6097242D362D472D229687
:100680005FAD229723966FAD23977B2F2F968FAD6B
:100690002F979F2FA0E0BAD609F4EFC05394299664
:1006A000AFAC29972A96BFAC2A97C92CD92CE92C34
:1006B000F92C092D192DFCD5E0E4AE2EF6E0BF2E65
:1006C000C12CD12CE12CF12C00E010E043D62B966C
:1006D000AFAC2B972C96BFAC2C97C82CD82CE82C01
:1006E000F82C082D182DE4D5A8EEAA2EB3E0BB2EC9
:1006F000C12CD12CE12CF12C00E010E02BD6E3E052
:10070000AE2EB12CD5D559016A017B018C012F3F4A
:100710003F4F41055105610571058105910559F06E
:1007200050F0AA24AA94BB24BA94C12CD12CE12C59
:10073000F12C00E010E020E030E041E050E060E02B
:1007400070E080E090E050D6790121153105B1E0EC
:100750004B075105610571058105910509F409C132
:10076000D1012C931196FC92119712964C931297EB
:1007700013965C93139714966C93149715967C9329
:10078000159716968C93169717969C93F101B08146
:10079000A1814280F3812F96FFAF2F97F101F48161
:1007A0002296FFAF2297F101F5812396FFAF2397A1
:1007B000F1016680778029AD3AAD4BAD5CAD590152
:1007C0006A012B2F3A2F442D2F965FAD2F9722963B
:1007D0006FAD229723967FAD2397C301E12CF12CB7
:1007E00000E010E00AD628F49D0139AF2AAF4BAEE5
:1007F0005CAF21962CAD3DAD4EAD5FAD219759015B
:100800006A01E12CF12C87012B2F3A2F442D2F96D2
:100810005FAD2F9722966FAD229723967FAD2397DA
:10082000C301A9AABAAACBAADCAAEDAAFEAA0FAB59
:1008300018AFE12CF12C00E010E0DFD509F008F44E
:10084000A4C09D013DAF2EAF4FAE21965FAF219763
:10085000F10180819181A281B38127962CAD3DADBC
:100860004EAD5FAD2797280F391F4A1F5B1F279694
:100870002CAF3DAF4EAF5FAF279738E0230E311C52
:100880002E966EAC7FAC2E976214730409F0D7CE0F
:1008900027966CAD7DAD8EAD9FAD279789AC9AAC98
:1008A000ABACBCAC681979098A099B0921966CAC80
:1008B0007DAC8EAC9FAC21976619770988099909A0
:1008C000452D4250550B9A01032E000C440B550B3D
:1008D000CDD4890161E085E021D481E090E086D328
:1008E000809109018F5F813109F474C080930901FF
:1008F000602F812FE5DC13DD60E085E00FD476DC2E
:1009000088EE93E073D383B7817F846083BF83B71E
:10091000816083BFF894809164008F6E809364003F
:1009200085B7806685BF8F7D85BF7894889583B7AE
:100930008E7F83BF80916400807180936400C15B6F
:10094000DF4F0FB6F894DEBF0FBECDBFDF91CF9162
:100950001F910F91FF90EF90DF90CF90BF90AF90DD
:100960009F908F907F906F905F904F903F902F90CF
:10097000089544244A94F1014082418212821382F4
:10098000148215821682178201CF2F965FAD2F97A2
:1009900022966FAD229723967FAD2397A0E036D5A0
:1009A00009F056CF81E0D1018C9311961C921197DA
:1009B00012961C92129713961C92139714961C92DF
:1009C000149715961C92159716961C9216971796C3
:1009D0001C923ECF1092090112DC90930201809389
:1009E000010186CF66E08EE091E01CC10F931F935A
:1009F000CF93DF93FC011081C181D281F8948A8169
:100A0000012F009580238A838981812B89837894A3
:100A100080EE91E0EBD2F8948981802389838A81EA
:100A2000812B8A8386E490E0E1D2088178948AE978
:100A300091E0DCD28881812349F481E08093240114
:100A400080E0DF91CF911F910F910895102381E0F5
:100A500009F080E010922401F4CF1F93CF93DF932D
:100A6000FC011081C181D281912F909560FF14C04B
:100A7000F8948A8189238A838981812B89838AE0FA
:100A800090E0B4D28A81182B1A83789487E390E09F
:100A9000DF91CF911F91AAC2F8948A8189238A831A
:100AA0008981812B898381E490E0A0D28A81182BEF
:100AB0001A83789485E090E0EBCF0F931F93CF9348
:100AC000DF93FC011081C181D281F8948A81012FCA
:100AD000009580238A838981812B898383E090E03C
:100AE00085D28981802389838A81812B8A838AE0C8
:100AF00090E07CD2C881789485E390E077D21C2383
:100B000081E009F480E0DF91CF911F910F9108956A
:100B1000DF92EF92FF920F931F93CF93DF93EC013D
:100B2000D62EE42E08E010E0FF24F39461E08D2D32
:100B30008F2109F460E0CE0190DFFF0C0150110914
:100B4000A9F7E11009C0F894E981FA8191818881BF
:100B50008095892381837894DF91CF911F910F91A4
:100B6000FF90EF90DF900895EF92FF920F931F9305
:100B7000CF93DF937C0108E010E0C0E0D1E0C70133
:100B80009CDF8111CD2BDD0F01501109C1F78C2F96
:100B9000DF91CF911F910F91FF90EF900895EF9209
:100BA000FF920F931F93CF93DF937C01EB018B0197
:100BB000040F151FC017D10721F0C701D5DF899396
:100BC000F9CFDF91CF911F910F91FF90EF90089592
:100BD000EF92FF920F931F93CF93DF938C017B01D2
:100BE00040E065E595DFE70188E0E80EF11C6991DA
:100BF00040E0C8018DDFCE15DF05C9F7DF91CF9149
:100C00001F910F91FF90EF900895FC0113861586B8
:100C10001486128611861086178216821582148217
:100C2000138208951F93CF93DF93EC01162F60E09A
:100C3000812F38D2612F70E0FB01E55BFE4FE4911C
:100C4000E883FB01EE59FE4FE491F0E0EE0FFF1F49
:100C5000E758FE4F859194919A838983CE01DF9165
:100C6000CF911F91D2CFFC0163831482158216822B
:100C7000178210861186128680E483871486158673
:100C80000895BF92CF92DF92EF92FF920F931F933E
:100C9000CF93DF93EC01B62EC72EED84EE2081F0CA
:100CA0001B861D861C8680E02396EB2DFC2D9F0164
:100CB000285F3F4F999191932E173F07D9F706C0B0
:100CC00095DE81110DC01B861D861C86DF91CF919C
:100CD0001F910F91FF90EF90DF90CF90BF900895FC
:100CE00040E060EFCE0114DFD12C01E011E0CE0135
:100CF000E4DEF82ECE01E1DE91E0F9120EC0813083
:100D000049F5113468F2EB86E11002C081E08D876D
:100D10008B81882329F281E0C7CFED2DF0E0F81216
:100D20000FC08B851817A0F4DE01AE0FBF1F1396FE
:100D30008C91802379F4F12C193008F41C87E12E72
:100D4000EC0FFD1F8381902F9095892383830AC028
:100D50008113F1CFFE01ED0DF11D8381802B838383
:100D6000FF24F3946F2DCE0178DE1F5F000F11F486
:100D7000D39401E087E08D1508F0B9CFC2CFDC0134
:100D800080E0615038F0ED91E827F0E0EC5CFF4F37
:100D90008491F7CF089508958230E8F4E82FF0E0C9
:100DA000EE0FFF1FED5FFE4F71836083813041F0D6
:100DB000809169008C7F482B40936900E89A0895E0
:100DC00080916900837F440F551F440F551F482BA6
:100DD00040936900E99A08951F920F920FB60F92FF
:100DE00011242F933F934F935F936F937F938F9330
:100DF0009F93AF93BF93EF93FF93E0910301F09123
:100E000004010995FF91EF91BF91AF919F918F914F
:100E10007F916F915F914F913F912F910F900FBEF6
:100E20000F901F9018951F920F920FB60F921124DA
:100E30002F933F934F935F936F937F938F939F93E2
:100E4000AF93BF93EF93FF93E0910501F0910601FB
:100E50000995FF91EF91BF91AF919F918F917F91F4
:100E60006F915F914F913F912F910F900FBE0F9017
:100E70001F9018950895C5D0FDDF6BDAC0E0D0E073
:100E8000D8DA2097E9F3BCD8FBCF1F920F920FB6A8
:100E90000F9211242F933F938F939F93AF93BF9300
:100EA00080912A0190912B01A0912C01B0912D01EC
:100EB0003091290126E0230F2D3768F129E8230F0F
:100EC0000396A11DB11D2093290180932A019093BF
:100ED0002B01A0932C01B0932D01809125019091BD
:100EE0002601A0912701B09128010196A11DB11DF5
:100EF0008093250190932601A0932701B0932801A8
:100F0000BF91AF919F918F913F912F910F900FBE05
:100F10000F901F9018950296A11DB11DD4CF2FB729
:100F2000F89460912A0170912B0180912C0190918D
:100F30002D012FBF08953FB7F8948091250190911E
:100F40002601A0912701B091280126B5A89B05C0D4
:100F50002F3F19F00196A11DB11D3FBFBA2FA92F38
:100F6000982F8827BC01CD01620F711D811D911D35
:100F700043E0660F771F881F991F4A95D1F70895A0
:100F80008F929F92AF92BF92CF92DF92EF92FF9299
:100F90006B017C01D0DF4B015C01C114D104E10481
:100FA000F104D9F062D1C7DF681979098A099B0970
:100FB000683E73408105910580F321E0C21AD10893
:100FC000E108F10888EE880E83E0981EA11CB11C90
:100FD000C114D104E104F10431F7FF90EF90DF90E8
:100FE000CF90BF90AF909F908F9008950000000029
:100FF0008330910528F0880F991F05970197F1F725
:101000000895789484B5836084BD85B5836085BD7B
:10101000EEE6F0E0808181608083E1E8F0E082E04C
:101020008083808181608083E0E8F0E0808181605E
:101030008083E1EBF0E0808184608083E0EBF0E08E
:1010400080818160808386E880937A001092C1005D
:101050000895843081F028F48230E9F08330F9F08B
:101060000895883071F0893091F08530B9F480911D
:1010700080008F7D03C0809180008F7780938000F7
:1010800008958091B0008F778093B000089580918B
:10109000B0008F7DF9CF84B58F7784BD089584B576
:1010A0008F7DFBCFCF93DF9390E0FC01E55BFE4F9C
:1010B00024918E599E4FFC0184918823C9F090E0C1
:1010C000880F991FFC01E357FE4FA591B491FC01D5
:1010D000ED57FE4FC591D49161110DC09FB7F894A3
:1010E0008C91209582238C938881282328839FBF0D
:1010F000DF91CF910895623051F49FB7F8943C91FD
:10110000822F809583238C93E8812E2BEFCF8FB78E
:10111000F894EC912E2B2C938FBFEACF1F93CF9393
:10112000DF93282F30E0F901EC5CFE4F8491F90148
:10113000E55BFE4FD491F901EE59FE4FC491CC23EB
:10114000A1F0162F811185DFEC2FF0E0EE0FFF1FCD
:10115000ED57FE4FA591B4918FB7F894EC91111112
:1011600008C0D095DE23DC938FBFDF91CF911F9114
:101170000895DE2BF8CF4F925F926F927F928F92FD
:101180009F92AF92BF92CF92DF92EF92FF920F9316
:101190001F93CF93DF93762E49015A0190E0FC0113
:1011A000E55BFE4F14918E599E4FFC01C491611175
:1011B000712EC1DE6B017C01D0E0CC0FDD1FC75862
:1011C000DE4FFE01A591B4918C9181238715B9F072
:1011D000FE01A591B4910C91012307112EC0ABDE45
:1011E0002B013C01FE01A591B4918C91812308173C
:1011F00081F1A1DE64197509860997090DC09BDE8E
:101200006C197D098E099F0986169706A806B906EE
:10121000C0F660E070E0CB01DF91CF911F910F919C
:10122000FF90EF90DF90CF90BF90AF909F908F9006
:101230007F906F905F904F9008957DDE6C197D09CF
:101240008E099F0986169706A806B90608F0C0CF32
:10125000E0CF71DE6C197D098E099F09861697060D
:10126000A806B90608F0BECFD4CF0895A1E21A2E81
:10127000AA1BBB1BFD010DC0AA1FBB1FEE1FFF1F3A
:10128000A217B307E407F50720F0A21BB30BE40B8A
:10129000F50B661F771F881F991F1A9469F76095D1
:1012A0007095809590959B01AC01BD01CF0108958B
:1012B000DF93CF931F930F939A9DF02D219FF00DF5
:1012C0008B9DF00D8A9DE02DF10D039FF00D029F87
:1012D000E00DF11D4E9DE00DF11D5E9DF00D4F9D49
:1012E000F00D7F936F93BF92AF925F934F93D501B1
:1012F0009FD08B01AC01D7019BD0EB01E80FF91F08
:10130000D6011ED02F913F91D60192D0C60FD71F84
:10131000E81FF91FAF91BF9113D02F913F9188D053
:10132000C60FD71FE81FF91FD60182D0E60FF71F9F
:101330009801BE01CF010F911F91CF91DF910895C8
:1013400077D0460F571FC81FD91F08F4319608954C
:10135000689401C0E8948F929F92CF93DF9305D059
:10136000DF91CF919F908F90089588249924F40164
:10137000E401B0E41B2ED4019D158E049F04E00708
:10138000F10738F4FC014B01CA01B901AD019E011E
:101390001694220F331F441F551F661F771F881F87
:1013A000991F881C991CEE1FFF1FCC1FDD1FAA1F51
:1013B000BB1F8A149B04EC05FD05CE05DF05A007C5
:1013C000B10748F08A189B08EC09FD09CE09DF092E
:1013D000A00BB10B21601A94E1F62EF49401AF0139
:1013E000BE01CD01000C08952A193B094C095D0985
:1013F0006E097F09800B910B08952A153B054C055A
:101400005D056E057F058007910708950024A7FDFF
:1014100000942A17300540055005600570058005C9
:1014200090050895EE0FFF1F0590F491E02D0994AB
:10143000A29FB001B39FC001A39F01D0B29F700DC6
:10144000811D1124911D0895F999FECF92BD81BD92
:10145000F89A992780B50895262FF999FECF1FBADB
:1014600092BD81BD20BD0FB6F894FA9AF99A0FBECD
:0814700001960895F894FFCFE6
:08147800011900CB0600000081
:00000001FF
