:10000000CCC09CC5C2C5EEC0EDC0ECC0EBC0EAC020
:10001000E9C0E8C0E7C0E6C0E5C0E4C0E3C0E2C0B4
:10002000E6C5E0C0DFC0DEC0DDC0DCC0DBC0DAC0DA
:10003000D9C0D8C0005EBCE2613FDD83C29C7E2097
:10004000A3FD1F419DC3217FFCA2401E5F01E3BDB4
:100050003E6082DC237D9FC1421CFEA0E1BF5D03A8
:1000600080DE3C62BEE0025CDF81633D7C22C09E9C
:100070001D43A1FF4618FAA427799BC584DA386688
:10008000E5BB5907DB856739BAE406581947A5FB74
:100090007826C49A653BD987045AB8E6A7F91B4568
:1000A000C6987A24F8A6441A99C7257B3A6486D85C
:1000B0005B05E7B98CD2306EEDB3510F4E10F2AC48
:1000C0002F7193CD114FADF3702ECC92D38D6F3134
:1000D000B2EC0E50AFF1134DCE90722C6D33D18F28
:1000E0000C52B0EE326C8ED0530DEFB1F0AE4C121C
:1000F00091CF2D73CA947628ABF517490856B4EA08
:100100006937D58B5709EBB536688AD495CB2977F3
:10011000F4AA4816E9B7550B88D6346A2B7597C9E7
:100120004A14F6A8742AC896154BA9F7B6E80A54DB
:10013000D7896B35000000090003020000040508A0
:100140000000000000000000000000010204081090
:100150002040800102040810200102040810204001
:1001600080400404040404040404020202020202A3
:10017000030303030303020203000000002300261D
:1001800000290000000000250028002B00000000CE
:1001900000240027002A0000B20311241FBECFEF65
:1001A000D4E0DEBFCDBF11E0A0E0B1E0ECE9F0E1CA
:1001B00002C005900D92AA30B107D9F721E0AAE05C
:1001C000B1E001C01D92AB32B207E1F710E0CDEC17
:1001D000D0E003C02197FE0137D7CC3CD107D1F73F
:1001E000FCD45AC70DCF089549C7CF93DF93EC01D4
:1001F00083E191E0BBD2BE0183E191E0A9D340E06D
:1002000064E483E191E0DF91CF9142C3CF92DF922A
:10021000EF92FF921F93CF93DF9300D0CDB7DEB75D
:100220006C01162F7A0183E191E0A0D2882361F15D
:10023000B60183E191E08CD340E06EEB83E191E085
:1002400027D342E050E0BE016F5F7F4F83E191E032
:1002500066D389819A81193079F4887FF701918377
:10026000808381E00F900F90DF91CF911F91FF90DD
:10027000EF90DF90CF9008951A3011F48C7FEECF7D
:100280001B3061F78E7FEACF80E0ECCF61E083E046
:10029000EBD561E070E080E090E018D560E083E0AD
:1002A000E3C5F4DF61E070E080E090E00FC5EF921D
:1002B000FF921F93CF93DF93CDB7DEB72C970FB686
:1002C000F894DEBF0FBECDBF7C01162F83E191E015
:1002D0004DD2882389F0B70183E191E039D340E022
:1002E0006EEB83E191E0D4D245E050E0BE016F5F58
:1002F0007F4F83E191E013D383E191E037D28823EC
:1003000091F1B70183E191E023D340E06EE483E112
:1003100091E0BED240E06B8183E191E0B9D240E050
:100320006C8183E191E0B4D26D816F791B3039F13A
:100330001C3039F11A3009F4606240E083E191E049
:10034000A7D283E191E012D2882369F06BE071E0DB
:1003500083E191E0FDD240E068E483E191E098D24E
:1003600083E191E003D22C960FB6F894DEBF0FBE66
:10037000CDBFDF91CF911F91FF90EF900895606402
:10038000DCCF6066DACFCF93DF93EC0183E191E0BD
:10039000FCD26BE071E083E191E025D38823D9F0B2
:1003A00067E08BE091E09DD390911201891313C017
:1003B00069E08BE091E07BDF8BE091E016DF6EE59A
:1003C00070E080E090E082D4AE0169E08BE091E0E3
:1003D000DF91CF911BCF80E0DF91CF9108958F9275
:1003E0009F92AF92BF92CF92DF92EF92FF920F93C4
:1003F0001F93CF93DF93CDB7DEB7C257D1090FB6A6
:10040000F894DEBF0FBECDBF41DF61E080E1F0D4E4
:1004100062E080E0EDD461E089E0EAD461E08AE066
:10042000E7D461E083E0E4D460E083E01DD542E0FE
:1004300050E063EF70E080E061D388E090E016D692
:1004400080930A0161E0680F88E090E0CDDE90E0E3
:1004500080E00CD680930A018F3F09F06BC161E008
:1004600080E102D569E170E080E090E02FD48E0158
:100470000F5F1F4F48014AE0C42ED12CB12C20E35E
:1004800035E740E050E060E080E01BD5A62E672F06
:10049000EA2CF72ED401ED92FD924D01C601A4DEA7
:1004A0006A2DC6010196A0DEB0EDEB1AB7E0FB0A9B
:1004B000E1E4EE16EFE1FE0608F0B394F2E0CF0EB1
:1004C000D11C3EE6C316D104D1F66B2D81E090E03D
:1004D0008BDE82E08B1508F42DC160E080E1C4D48E
:1004E00086E0E4E0F1E0DE01A559BF4F01900D92F6
:1004F0008A95E1F7A7961FAE1EAEA797A9961FAEE5
:100500001EAEA997AB961FAE1EAEAB97D801AC59E5
:10051000BF4F60E070E0CB0120E0F80141915191C4
:100520008F01FA01E05DF740E134FF4108F06AC055
:10053000640F751F811D911D2F5FAD96EEACFFAC52
:10054000AD97AF96CEACDFACAF974E155F0568F0B8
:100550004C155D05D8F1E196EEADFFADE1974E1774
:100560005F07D8F4E2E0F0E00DC030E0F0E0E0E05A
:10057000E196DFAECEAEE197311104C0AF96FFAE8B
:10058000EEAEAF97EE0FFF1F3BE6E32EF12CEC0E25
:10059000FD1EEE0DFF1D51834083A796EEACFFAC10
:1005A000A797A996CEACDFACA997E416F50690F014
:1005B000C416D50608F4D2C0AB96EEADFFADAB972E
:1005C000E417F507F8F4E2E0F0E011C031E0E1E013
:1005D000F0E0CECF30E0F0E0E0E0AB96DFAECEAEC4
:1005E000AB97311104C0A996FFAEEEAEA997EE0FFE
:1005F000FF1F35E6E32EF12CEC0EFD1EEE0DFF1D68
:1006000051834083A017B10709F087CF273088F1C5
:10061000AD964EAD5FADAD97641B750B8109910929
:10062000A7964EAD5FADA797641B750B8109910925
:10063000AF964EAD5FADAF97641B750B8109910905
:10064000A9964EAD5FADA997641B750B8109910901
:10065000E1964EAD5FADE197641B750B8109910981
:10066000AB964EAD5FADAB97641B750B81099109DD
:10067000265030E050E040E09FD46CE9C62E68E19F
:10068000D62EE12CF12CD701C601821B930BA40BB3
:10069000B50B9C01AD01A4EFB1E0CCD4A70196014C
:1006A000ADD469017A01CE018F589F4F6CDE88234B
:1006B000A9F0E3966EAD7FADE397072E000C880B93
:1006C000990B605971408109910920E230E040E0C6
:1006D00050E094D4C20ED31EE41EF51E90E8C91655
:1006E000D104E104F1042CF09FE7C92ED12CE12CB8
:1006F000F12CA0E8CA16AFEFDA06EA06FA0634F4DF
:1007000080E8C82EDD24DA94ED2CFD2C60E86C0D19
:1007100090E080E069DDBFE7CB0ED11CE11CF11C4D
:10072000EEEFCE16D104E104F10420F461E082E0A2
:1007300090E05ADDCE58DF4F0FB6F894DEBF0FBE03
:10074000CDBFDF91CF911F910F91FF90EF90DF9080
:10075000CF90BF90AF909F908F90089531E0E1E0EF
:10076000F0E03BCF66E083E191E01CC10F931F9363
:10077000CF93DF93FC011081C181D281F8948A81EB
:10078000012F009580238A838981812B8983789426
:1007900080EE91E0D1D2F8948981802389838A8187
:1007A000812B8A8386E490E0C7D2088178948AE915
:1007B00091E0C2D28881812349F481E080932101B4
:1007C00080E0DF91CF911F910F910895102381E078
:1007D00009F080E010922101F4CF1F93CF93DF93B3
:1007E000FC011081C181D281912F909560FF14C0CE
:1007F000F8948A8189238A838981812B89838AE07D
:1008000090E09AD28A81182B1A83789487E390E03B
:10081000DF91CF911F9190C2F8948A8189238A83B6
:100820008981812B898381E490E086D28A81182B8B
:100830001A83789485E090E0EBCF0F931F93CF93CA
:10084000DF93FC011081C181D281F8948A81012F4C
:10085000009580238A838981812B898383E090E0BE
:100860006BD28981802389838A81812B8A838AE064
:1008700090E062D2C881789485E390E05DD21C2339
:1008800081E009F480E0DF91CF911F910F910895ED
:10089000DF92EF92FF920F931F93CF93DF93EC01C0
:1008A000D62EE42E08E010E0FF24F39461E08D2DB5
:1008B0008F2109F460E0CE0190DFFF0C0150110997
:1008C000A9F7E11009C0F894E981FA819181888142
:1008D0008095892381837894DF91CF911F910F9127
:1008E000FF90EF90DF900895EF92FF920F931F9388
:1008F000CF93DF937C0108E010E0C0E0D1E0C701B6
:100900009CDF8111CD2BDD0F01501109C1F78C2F18
:10091000DF91CF911F910F91FF90EF900895EF928B
:10092000FF920F931F93CF93DF937C01EB018B0119
:10093000040F151FC017D10721F0C701D5DF899318
:10094000F9CFDF91CF911F910F91FF90EF90089514
:10095000EF92FF920F931F93CF93DF938C017B0154
:1009600040E065E595DFE70188E0E80EF11C69915C
:1009700040E0C8018DDFCE15DF05C9F7DF91CF91CB
:100980001F910F91FF90EF900895FC01138615863B
:10099000148612861186108617821682158214829A
:1009A000138208951F93CF93DF93EC01162F60E01D
:1009B000812F1ED2612F70E0FB01E55BFE4FE491B9
:1009C000E883FB01EE59FE4FE491F0E0EE0FFF1FCC
:1009D000E758FE4F859194919A838983CE01DF91E8
:1009E000CF911F91D2CFBF92CF92DF92EF92FF9221
:1009F0000F931F93CF93DF93EC01B62EC72EED8498
:100A0000EE2081F01B861D861C8680E02396EB2D50
:100A1000FC2D9F01285F3F4F999191932E173F071F
:100A2000D9F706C0A3DE81110DC01B861D861C866A
:100A3000DF91CF911F910F91FF90EF90DF90CF90BA
:100A4000BF90089540E060EFCE0122DFD12C01E09D
:100A500011E0CE01F2DEF82ECE01EFDE91E0F912C8
:100A60000EC0813049F5113468F2EB86E11002C006
:100A700081E08D878B81882329F281E0C7CFED2D1E
:100A8000F0E0F8120FC08B851817A0F4DE01AE0F4E
:100A9000BF1F13968C91802379F4F12C193008F440
:100AA0001C87E12EEC0FFD1F8381902F90958923E9
:100AB00083830AC08113F1CFFE01ED0DF11D838107
:100AC000802B8383FF24F3946F2DCE0186DE1F5F7E
:100AD000000F11F4D39401E087E08D1508F0B9CF31
:100AE000C2CFDC0180E0615038F0ED91E827F0E002
:100AF000EC5CFF4F8491F7CF089508958230E8F4BD
:100B0000E82FF0E0EE0FFF1FE050FF4F718360838E
:100B1000813041F0809169008C7F482B40936900BF
:100B2000E89A089580916900837F440F551F440F10
:100B3000551F482B40936900E99A08951F920F9220
:100B40000FB60F9211242F933F934F935F936F93A0
:100B50007F938F939F93AF93BF93EF93FF93E09116
:100B60000001F09101010995FF91EF91BF91AF91C3
:100B70009F918F917F916F915F914F913F912F91B5
:100B80000F900FBE0F901F9018951F920F920FB6E7
:100B90000F9211242F933F934F935F936F937F9303
:100BA0008F939F93AF93BF93EF93FF93E0910201D5
:100BB000F09103010995FF91EF91BF91AF919F9142
:100BC0008F917F916F915F914F913F912F910F90F6
:100BD0000FBE0F901F9018950895B9D0FDDFFFDB71
:100BE000C0E0D0E05EDB2097E9F30ADAFBCF1F928A
:100BF0000F920FB60F9211242F933F938F939F93D1
:100C0000AF93BF938091270190912801A091290172
:100C1000B0912A013091260126E0230F2D3768F18B
:100C200029E8230F0396A11DB11D2093260180936F
:100C3000270190932801A0932901B0932A01809164
:100C4000220190912301A0912401B09125010196E8
:100C5000A11DB11D8093220190932301A093240133
:100C6000B0932501BF91AF919F918F913F912F91AB
:100C70000F900FBE0F901F9018950296A11DB11DE9
:100C8000D4CF3FB7F8948091220190912301A09195
:100C90002401B091250126B5A89B05C02F3F19F06E
:100CA0000196A11DB11D3FBFBA2FA92F982F8827EC
:100CB000BC01CD01620F711D811D911D43E0660FC6
:100CC000771F881F991F4A95D1F708958F929F9299
:100CD000AF92BF92CF92DF92EF92FF926B017C01B5
:100CE000D0DF4B015C01C114D104E104F104D9F05F
:100CF00062D1C7DF681979098A099B09683E734088
:100D00008105910580F321E0C21AD108E108F108BC
:100D100088EE880E83E0981EA11CB11CC114D1047A
:100D2000E104F10431F7FF90EF90DF90CF90BF9096
:100D3000AF909F908F900895000000008330910540
:100D400028F0880F991F05970197F1F70895789477
:100D500084B5836084BD85B5836085BDEEE6F0E033
:100D6000808181608083E1E8F0E082E0808380819F
:100D700081608083E0E8F0E0808181608083E1EB46
:100D8000F0E0808184608083E0EBF0E0808181602E
:100D9000808386E880937A001092C10008958430A1
:100DA00081F028F48230E9F08330F9F0089588303A
:100DB00071F0893091F08530B9F4809180008F7D99
:100DC00003C0809180008F77809380000895809188
:100DD000B0008F778093B00008958091B0008F7D30
:100DE000F9CF84B58F7784BD089584B58F7DFBCF0F
:100DF000CF93DF9390E0FC01E55BFE4F24918E5989
:100E00009E4FFC0184918823C9F090E0880F991FC0
:100E1000FC01E357FE4FA591B491FC01ED57FE4F45
:100E2000C591D49161110DC09FB7F8948C91209514
:100E300082238C938881282328839FBFDF91CF91C1
:100E40000895623051F49FB7F8943C91822F8095B9
:100E500083238C93E8812E2BEFCF8FB7F894EC91FE
:100E60002E2B2C938FBFEACF1F93CF93DF93282F86
:100E700030E0F901EC5CFE4F8491F901E55BFE4F37
:100E8000D491F901EE59FE4FC491CC23A1F0162F55
:100E9000811185DFEC2FF0E0EE0FFF1FED57FE4FC5
:100EA000A591B4918FB7F894EC91111108C0D09529
:100EB000DE23DC938FBFDF91CF911F910895DE2B4E
:100EC000F8CF4F925F926F927F928F929F92AF92E4
:100ED000BF92CF92DF92EF92FF920F931F93CF9327
:100EE000DF93762E49015A0190E0FC01E55BFE4F4D
:100EF00014918E599E4FFC01C4916111712EC1DE77
:100F00006B017C01D0E0CC0FDD1FC758DE4FFE0126
:100F1000A591B4918C9181238715B9F0FE01A5911B
:100F2000B4910C91012307112EC0ABDE2B013C01C3
:100F3000FE01A591B4918C918123081781F1A1DE66
:100F400064197509860997090DC09BDE6C197D0926
:100F50008E099F0986169706A806B906C0F660E0B6
:100F600070E0CB01DF91CF911F910F91FF90EF9037
:100F7000DF90CF90BF90AF909F908F907F906F90B9
:100F80005F904F9008957DDE6C197D098E099F0951
:100F900086169706A806B90608F0C0CFE0CF71DE26
:100FA0006C197D098E099F0986169706A806B90651
:100FB00008F0BECFD4CF0895A1E21A2EAA1BBB1B06
:100FC000FD010DC0AA1FBB1FEE1FFF1FA217B30715
:100FD000E407F50720F0A21BB30BE40BF50B661F2B
:100FE000771F881F991F1A9469F7609570958095EF
:100FF00090959B01AC01BD01CF010895052E97FB93
:1010000016F400940FD057FD05D0D6DF07FC02D0B0
:1010100046F408C050954095309521953F4F4F4F6D
:101020005F4F089590958095709561957F4F8F4F94
:101030009F4F08950FD0A59F900DB49F900DA49F32
:10104000800D911D11240895EE0FFF1F0590F4915E
:10105000E02D0994A29FB001B39FC001A39F01D0CE
:10106000B29F700D811D1124911D0895F999FECF35
:1010700092BD81BDF89A992780B50895262FF999D8
:10108000FECF1FBA92BD81BD20BD0FB6F894FA9A6B
:0C109000F99A0FBE01960895F894FFCF66
:0A109C007D050000FFFFFFFFFFFFCE
:00000001FF
